:1012130060280028FFFF000000000000000000001D
:1012230000000000000000000000000000000000BB
:0C123300000000000000000000000000AF
:1012F700E4FEEEC39F501100007D017CC37B88DBB9
:08130700FEDCFCDDFA0E80EAB9
:01130F0022BB
:1012BB00759850438E40538EFE53890F758BD575A1
:0F12CB008DFFC2ABD28EE5A2547F4440F5A22224
:0B11B6009000C2EBF0A3EAF0A3E9F008
:1011C100E4FFEFC39D501D9000C2E0FBA3E0FAA332
:1011D100E0F98F82758300121240F5993099FDC2B2
:0411E100990F80DE04
:0111E50022E7
:1012DA00E4FEEEC39F501574002EF582E43400F547
:0C12EA0083E599F03098FDC2980E80E674
:0112F60022D5
:10126D007E04EF2E24062DF4FC90002AEFF0A3EE61
:10127D00F0A314F0A3F0A3EDF0AF04A3EFF07B0106
:0C128D007A00792874042404FD0211B6D4
:1011E6007E04EF2E24072DF4FC90002AEFF0A3EEE8
:1011F600F0A314F0A304F0A3EDF0AF04A3EFF07B8B
:0D120600017A00792874042404FD0211B659
:0A1117009000C5ECF0A3EDF0A9076D
:101121007D07E0A3F09000C5E09000C8F0A3EBF0CC
:10113100EAFFE92D2421FE9000C7E0FC2EFEA3E08A
:10114100FB2EFEA3E02E2FF4FE90002AE9F0A3ED82
:10115100F0A37403F0A3741EF0A3ECF0A3EBF090E2
:1011610000C9E0900030F0A3EFF0AF06A3EFF07BF1
:0D117100017A00792874072404FD0211B6EC
:070D3F00FB7A017D267C0216
:0A0D460090008FECF0A3EDF0A90778
:100D50007D13E090009DF090008FE090009EF0A346
:100D6000EBF0EAA3F0900094E0FEA3E09000A1F085
:100D7000EEA3F0900096E0FEA3E09000A3F0EEA3B7
:100D8000F0900099E0FEA3E09000A5F0EEFC90004A
:100D90009CE0FB90009BE0FFED24A329FE90009DCA
:100DA000E02EFEA3E02EFEA3E02EFEA3E02EFE909A
:100DB0000093E02EFE9000A1E02EFEA3E02EFEA305
:100DC000E02EFEA3E02EFE900098E02EFE9000A5FF
:100DD000E02E2C2B2FF4FE90002A74FEF0A3EDF0F1
:100DE000A37483F0A3741EF0A37404F0A3E9F0903D
:100DF000009DE0900030F090009EE0900031F09077
:100E0000009FE0900032F09000A0E0900033F0905E
:100E10000093E0900034F09000A1E0900035F09055
:100E200000A2E0900036F09000A3E0900037F09030
:100E300000A4E0900038F0900098E0900039F09025
:100E400000A5E090003AF0A3ECF0A3EBF0A3EFF0E4
:100E5000AF06A3EFF07B017A00792874132404FD18
:030E60000211B6C6
:100840007F0F1212F79000937404F0A37402F074F7
:1008500026A3F0A37402F0A3748AF0A37409F0A392
:100860007402F0A37412F0A37402F0A3748AF0A3CC
:10087000740AF0A37401F0A374AEF0A37402F074D0
:0C0880008AA3F0FB7D3A7A027C027F0321
:0A088C00A90790008FECF0A3EDF037
:100896007D189000A3F090008FE09000A4F0A3EBE9
:1008A600F0EAA3F0900094E0FEA3E09000A7F0EE3B
:1008B600A3F0900096E0FEA3E09000A9F0EEA3F06E
:1008C600900099E0FEA3E09000ABF0EEA3F090005C
:1008D6009BE0FEA3E09000ADF0EEA3F090009EE05A
:1008E600FEA3E09000AFF0EEFC9000A1E0FB9000CC
:1008F600A0E0FFED24A329FE9000A3E02EFEA3E0D6
:100906002EFEA3E02EFEA3E02EFE900093E02EFE28
:100916009000A7E02EFEA3E02EFEA3E02EFEA3E0AD
:100926002EFE900098E02EFE9000ABE02EFEA3E097
:100936002EFEA3E02EFEA3E02EFE90009DE02EFEEE
:100946009000AFE02E2C2B2FF4FE9000A2F090002A
:100956002A74FEF0A3EDF0A37483F0A3741EF0A333
:100966007404F0A3E9F09000A3E0900030F090004A
:10097600A4E0900031F09000A5E0900032F09000E5
:10098600A6E0900033F0900093E0900034F09000E1
:10099600A7E0900035F09000A8E0900036F09000B7
:1009A600A9E0900037F09000AAE0900038F090009F
:1009B60098E0900039F09000ABE090003AF090009B
:1009C600ACE090003BF09000ADE090003CF0900071
:1009D600AEE090003DF090009DE090003EF090006B
:1009E600AFE090003FF0A3ECF0A3EBF0A3EFF0A391
:1009F600EEF07B017A00792874182404FD0211B602
:10000300A3F0A37402F0A3748AF0A3740BF0A37497
:1000130001F0A374C2F0A37402F0A3748AF0A37472
:100023000CF0A37401F07418A3F0A37402F0A3748A
:0B0033008AF0FB7D767A027C027F04DD
:0A003E00A90790008FECF0A3EDF08D
:100048007D229000ADF090008FE09000AEF0A3EB21
:10005800F0EAA3F0900094E0FEA3E09000B1F0EE87
:10006800A3F0900096E0FEA3E09000B3F0EEA3F0BA
:10007800900099E0FEA3E09000B5F0EEA3F09000A8
:100088009BE0FEA3E09000B7F0EEA3F090009EE0A6
:10009800FEA3E09000B9F0EEFC9000A1E0FB900018
:1000A800A0E0FA9000A4E09000BAF09000A3E090DD
:1000B80000BBF09000A6E09000BCF09000A5E09096
:1000C80000BDF09000A9E09000BEF09000A8E0907C
:1000D80000BFF09000ABE09000C0F09000AAE09064
:1000E80000C1F0ED24A329FF9000ADE02FFFA3E0AD
:1000F8002FFFA3E02FFFA3E02FFF900093E02FFF37
:100108009000B1E02FFFA3E02FFFA3E02FFFA3E0B3
:100118002FFF900098E02FFF9000B5E02FFFA3E09D
:100128002FFFA3E02FFFA3E02FFF90009DE02FFFFC
:100138009000B9E02F2C2B2AFF9000A2E02FFF900F
:1001480000BAE02FFFA3E02FFFA3E02FFFA3E02FCB
:10015800FF9000A7E02FFF9000BEE02FFFA3E02F45
:10016800FFA3E02FFFA3E02FF4FF9000ACF0900076
:100178002A74FEF0A3EDF0A37483F0A3741EF0A319
:100188007404F0A3E9F09000ADE0900030F0900026
:10019800AEE0900031F09000AFE0900032F09000B7
:1001A800B0E0900033F0900093E0900034F09000BD
:1001B800B1E0900035F09000B2E0900036F0900089
:1001C800B3E0900037F09000B4E0900038F0900071
:1001D80098E0900039F09000B5E090003AF0900077
:1001E800B6E090003BF09000B7E090003CF0900043
:1001F800B8E090003DF090009DE090003EF0900047
:10020800B9E090003FF0A3EEF0A3EBF0A3EAF09082
:1002180000A2E0900043F09000BAE0900044F09013
:1002280000BBE0900045F09000BCE0900046F090E4
:1002380000BDE0900047F09000A7E0900048F090E3
:1002480000BEE0900049F09000BFE090004AF090B6
:1002580000C0E090004BF09000C1E090004CF0A38B
:10026800EFF07B017A00792874222404FD0211B68C
:100E63009000937402F0A3F0A3E4F0A304F0A3743E
:100E73005EF0A37403F0A314F0A3743AF0A3740117
:100E8300F0A3745EF07F01120D3F7F281212F790DA
:100E930000937405F0A37401F0A374C2F0A374016A
:100EA300F0A3745EF0A37406F0A37401F0A374CCF2
:100EB300F0A37401F0A3745EF07F04120D3F7F284A
:100EC3001212F79000937408F0A37402F0A3743025
:100ED300F0A37401F0A3745EF0A37409F0A3740289
:100EE300F0A37412F0A37401F0A3745EF0FB7A0113
:100EF3007D307C027F07120D467F281212F7900087
:100F030093740BF0A37401F0A374EAF0A37401F0DB
:100F1300A3745EF0A3740CF0A37401F0A3740EF039
:100F2300A37401F0A3745EF0FB7A017DAE7C017FB4
:090F33000A120D467F280212F794
:100278009000937404F0A37401F0A374A4F0A37421
:1002880002F0A3748AF0A37409F0A37401F0A374B4
:10029800D6F0A37402F0A3748AF0A3740AF0A374CE
:1002A80001F0A374FEF0A37402F0A3748AF0FBFDBE
:1002B8001208867F0F1212F79000937405F0A3744A
:1002C80001F0A374E0F0A37402F0A3748AF0A3749D
:1002D80006F0A37401F0A374C2F0A37402F0A3742F
:1002E8008AF0A3740AF0A37401F074401200037F2B
:1002F8000F1212F79000937405F0A37401F0A37421
:10030800C2F0A37402F0A3748AF0A37406F0A37475
:1003180001F0A374CCF0A37402F0A3748AF0A37460
:100328000AF0A37401F0A37440F0A37402F0A3745C
:100338008AF0A3740BF0A37401F0A374EAF0A37419
:1003480002F0A3748AF0A3740CF0A37401F0740E85
:1003580012002B7F0F1212F79000937402F0A3146F
:10036800F0A374EAF0A37402F0A3748AF0A37403F0
:10037800F0A314F0A37462F0A37402F0A3748AF0DB
:10038800A37407F0A37402F0A3741CF0A37402F022
:10039800A3748AF0A37408F0A37402F0A37444F061
:1003A800A37402F0A3748AF0A37409F0A37402F092
:1003B800A3744EF0A37402F0A3748AF0FB7A027D52
:1003C800447C027F0112003E7F0F1212F7900093C7
:1003D8007402F0A3F0A3E4F0A37402F0A3748AF00B
:1003E800A37403F0A314F0A37462F0A37402F0A33F
:1003F800748AF0A37407F0A37402F0A37430F0A316
:100408007402F0A3748AF0A37408F0A37402F0A332
:100418007430F0A37402F0A3748AF0A37409F0A3F3
:100428007402F0A3744EF0A37402F0A3748AF0FB74
:100438007A027D267C027F0112003E7F0F1212F79E
:100448009000937404F0A37402F0A37426F0A374CC
:1004580002F0A37458F0A37409F0A37402F0A37413
:1004680012F0A37402F0A37458F0A3740AF0A374F2
:1004780001F0A374AEF0A37402F074581208817FDF
:040488000F0212F756
:100BB1009000937405F0A37401F0A374E0F0A374A2
:100BC10002F0A3748AF0A37406F0A37401F0A37475
:100BD100C2F0A37402F0A3748AF0A3740AF0A374A0
:100BE10001F0745E1200037F0F1212F790009374EC
:100BF10005F0A37401F0A374C2F0A37402F0A3740E
:100C01008AF0A37406F0A37401F0A374CCF0A3746A
:100C110002F0A3748AF0A3740AF0A37401F0A37420
:100C21005EF0A37402F0A3748AF0A3740BF0A374B2
:100C310001F0A374EAF0A37402F0A3748AF0A37420
:100C41000CF0A37401F0A3740E12002C7F0F12128A
:100C5100F79000937402F0A314F0A374EAF0A37464
:100C610002F0A3748AF0A37403F0A37401F0A374D7
:100C7100EAF0A37402F0A3748AF0A37407F0A374DA
:100C810002F0A3741CF0A37402F0A3748AF0A3749D
:100C910008F0A37402F0A37444F0A37402F0A374E7
:100CA1008AF0A37409F0A37402F0A37462F0A37430
:100CB10002F0A3748AF0FB7A027D447C027F011268
:100CC100003E7F0F1212F79000937402F0A3F0A37D
:100CD100E4F0A37402F0A3748AF0A37403F0A37484
:100CE10001F0A374EAF0A37402F0A3748AF0A37470
:100CF10007F0A37402F0A37430F0A37402F0A3749C
:100D01008AF0A37408F0A37402F0A37430F0A37402
:100D110002F0A3748AF0A37409F0A37402F0A3741F
:100D210062F0A37402F0A3748AF0FB7A027D267C40
:0E0D3100027F0112003E1208407F0F0212F7EF
:10048C009000937405F0A37401F0A374E0F0A374CE
:10049C0002F0A3748AF0A37406F0A37401F0A374A1
:1004AC00C2F0A37402F0A3748AF0A3740AF0A374CC
:1004BC0001F0A3745EF0A37402F0A3748AF0A37429
:1004CC000BF0A37401F0A374C2F0A37402F0A37434
:1004DC008AF0A3740CF0A37401F0A37418F0A37445
:1004EC0002F0A3748AF0FB7A027DD67C017F0412A1
:1004FC00003E7F0F1212F79000937405F0A3740165
:10050C00F0A374C2F0A37402F0A3748AF0A374066F
:10051C00F0A37401F0A374CCF0A37402F0A3748A5A
:10052C00F0A3740AF0A37401F0A3745EF0A3740238
:10053C00F0A3748AF0A3740BF0A37401F0A374EA13
:10054C00F0A37402F0A3748AF0A3740CF0A37401EA
:10055C00F0A3740EF0A37402F0A3748AF0FB7A0279
:10056C007DD67C017F0412003E7F0F1212F79000A3
:10057C00937402F0A314F0A374EAF0A37402F0A332
:10058C00748AF0A37403F0A37401F0A374EAF0A3CB
:10059C007402F0A3748AF0A37407F0A37402F0A39E
:1005AC00741CF0A37402F0A3748AF0A37408F0A373
:1005BC007402F0A37444F0A37402F0A3748AF0A341
:1005CC007409F0A37401F0A374C2F0A37402F0A335
:1005DC00748AF0FB7A027D447C027F0112003E7F1C
:1005EC000F1212F79000937402F0A3F0A3E4F0A39F
:1005FC007402F0A3748AF0A37403F0A37401F0A343
:10060C0074EAF0A37402F0A3748AF0A37407F0A345
:10061C007402F0A37430F0A37402F0A3748AF0A3F4
:10062C007408F0A37402F0A37430F0A37402F0A366
:10063C00748AF0A37409F0A37401F0A374C2F0A33C
:10064C007402F0A3748AF0FB7A027D267C027F018F
:0B065C0012003E1208407F0F0212F750
:100A06009000937405F0A37401F0A374E0F0A3744E
:100A160002F0A3748AF0A37406F0A37401F0A37421
:100A2600C2F0A37402F0A3748AF0A3740AF0A3744C
:100A360001F0A374FE1200047F0F1212F7900093C8
:100A46007405F0A37401F0A374C2F0A37402F0A3BA
:100A5600748AF0A37406F0A37401F0A374CCF0A317
:100A66007402F0A3748AF0A3740AF0A37401F0A3CD
:100A760074FEF0A37402F0A3748AF0A3740BF0A3BF
:100A86007401F0A374EAF0A37402F0A3748AF0A3CD
:100A9600740CF0A37401F0A3740EF0A37402F0A317
:100AA6007458F07B8A7D801200387F0F1212F790FF
:100AB60000937402F0A314F0A374EAF0A37402F096
:100AC600A3748AF0A37403F0A314F0A37480F0A3B4
:100AD6007402F0A3748AF0A37407F0A37402F0A35F
:100AE600741CF0A37402F0A3748AF0A37408F0A334
:100AF6007402F0A37444F0A37402F0A3748AF0A302
:100B06007409F0A37402F0A37462F0A37402F0A354
:100B1600748AF0FB7A027D447C027F0112003E7FDC
:100B26000F1212F79000937402F0A3F0A3E4F0A35F
:100B36007402F0A3748AF0A37403F0A314F0A374F0
:100B460080F0A37402F0A3748AF0A37407F0A37470
:100B560002F0A37430F0A37402F0A3748AF0A374B5
:100B660008F0A37402F0A37430F0A37402F0A37427
:100B76008AF0A37409F0A37402F0A37462F0A3745C
:100B860002F0A3748AF0FB7A027D267C027F0112B2
:100B9600003E7F0F1212F79000937404F0A37402C4
:0B0BA600F0741C1208517F0F0212F7C0
:100667009000937405F0A37401F0A374E0F0A374F1
:1006770002F0A3748AF0A37406F0A37401F0A374C4
:10068700C2F0A37402F0A3748AF0A3740AF0A374EF
:1006970001F0A374FEF0A37402F0A3748AF0A374AC
:1006A7000BF0A37401F0A374C2F0A37402F0A37457
:1006B7008AF0A3740CF0A37401F0A37418F0A37468
:1006C70002F0A3748AF0FB7A027DD67C017F0412C4
:1006D700003E7F0F1212F79000937405F0A3740188
:1006E700F0A374C2F0A37402F0A3748AF0A3740693
:1006F700F0A37401F0A374CCF0A37402F0A3748A7E
:10070700F0A3740AF0A37401F0A374FEF0A37402BB
:10071700F0A3748AF0A3740BF0A37401F0A374EA36
:10072700F0A37402F0A3748AF0A3740CF0A374010D
:10073700F0A3740EF0A37402F0A3748AF0FB7A029C
:100747007DD67C017F0412003E7F0F1212F79000C6
:10075700937402F0A314F0A374EAF0A37402F0A355
:10076700748AF0A37403F0A314F0A3748AF0A3743B
:1007770002F0A3748AF0A37407F0A37402F0A374C1
:100787001CF0A37402F0A3748AF0A37408F0A37496
:1007970002F0A37444F0A37402F0A3748AF0A37464
:1007A70009F0A37401F0A374C2F0A37402F0A37458
:1007B7008AF0FB7A027D447C027F0112003E7F0FA4
:1007C7001212F79000937402F0A3F0A3E4F0A3745D
:1007D70002F0A3748AF0A37403F0A314F0A3748A3D
:1007E700F0A37402F0A3748AF0A37407F0A3740251
:1007F700F0A37430F0A37402F0A3748AF0A3740812
:10080700F0A37402F0A37430F0A37402F0A3748A07
:10081700F0A37409F0A37401F0A374C2F0A37402E7
:10082700F0A3748AF0FB7A027D267C027F01120016
:090837003E1208407F0F0212F787
:10131000759A50438E0475D7F875D6FD438E1053D9
:06132000AFFE43BA0122FA
:0B117E0090008EEBF0A3EAF0A3E9F074
:10118900E4FFEFC39D502590008EE0FBA3E0FAA396
:10119900E0F98F82758300121240F59BE59A44FDB0
:0C11A9005402C31360F6539AFD0F80D669
:0111B5002217
:10129900E4FEEEC39F501A74522EF582E43400F531
:1012A90083E59BF0E59A44FE30E0F9539AFE0E80FF
:0112B900E153
:0112BA002211
:10132600900050E59BF0E59A44FE30E0F9539AFEB2
:011336002294
:10133700900051E59BF0E59A44FE30E0F9539AFEA0
:011347002283
:100FEC00506C6561736520656E746572206120704C
:100FFC00617373776F726420212000456E74657283
:10100C002070617373776F7264207375636365739B
:10101C007366756C6C7920212000476F20466F72C7
:10102C0077617264202120005475726E204C6566C5
:10103C0074202120005475726E20526967687420E8
:10104C0021200044726177204261636B20212000D3
:10105C005468697320612077726F6E6720212000BD
:10106C00456E746572207468652070617373776F58
:0F107C0072642069732077726F6E6720212000E5
:100F3C001212BB7F0A1212F71213107F0A1212F749
:100F4C00120E637F321212F77F321212F77BFF7A86
:100F5C000F79EC7D1A12117EE4900051F07F321261
:100F6C0012F71213377F0A1212F7900051E0643116
:100F7C0070607BFF7A1079077D1D805112132690CB
:100F8C000050E024BE601714602114602B24037001
:100F9C0034120BB17BFF7A1079267D0D802F120451
:100FAC008C7BFF7A1079347D0C8022120A067BFF31
:100FBC007A1079417D0D80151206677BFF7A1079C6
:100FCC004F7D0C80087BFF7A10795C7D0F12117EAF
:100FDC0080AA7BFF7A10796C7D1E12117E020F5451
:0300000002108B60
:0C108B00787FE4F6D8FD7581070210D2D2
:10124000BB010CE58229F582E5833AF583E0225063
:1012500006E92582F8E622BBFE06E92582F8E222AD
:0D126000E58229F582E5833AF583E49322C7
:10109700020F3CE493A3F8E493A34003F68001F224
:1010A70008DFF48029E493A3F85407240CC8C3335A
:1010B700C4540F4420C8834004F456800146F6DF29
:1010C700E4800B0102040810204080901213E47E94
:1010D700019360BCA3FF543F30E509541FFEE4931E
:1010E700A360010ECF54C025E060A840B8E493A3E5
:1010F700FAE493A3F8E493A3C8C582C8CAC583CA10
:10110700F0A3C8C582C8CAC583CADFE9DEE780BEC7
:01123F0000AE
:00000001FF
